{
  "contractName": "ExpenseTracker",
  "abi": [
    {
      "inputs": [],
      "name": "balance",
      "outputs": [
        {
          "internalType": "int256",
          "name": "",
          "type": "int256"
        }
      ],
      "stateMutability": "view",
      "type": "function",
      "constant": true
    },
    {
      "inputs": [
        {
          "internalType": "uint256",
          "name": "",
          "type": "uint256"
        }
      ],
      "name": "transaction",
      "outputs": [
        {
          "internalType": "address",
          "name": "transactionOwner",
          "type": "address"
        },
        {
          "internalType": "string",
          "name": "transactionDescription",
          "type": "string"
        },
        {
          "internalType": "int64",
          "name": "amount",
          "type": "int64"
        }
      ],
      "stateMutability": "view",
      "type": "function",
      "constant": true
    },
    {
      "inputs": [
        {
          "internalType": "string",
          "name": "_description",
          "type": "string"
        },
        {
          "internalType": "int64",
          "name": "_amount",
          "type": "int64"
        }
      ],
      "name": "addTransaction",
      "outputs": [],
      "stateMutability": "nonpayable",
      "type": "function"
    },
    {
      "inputs": [],
      "name": "getTransactionCount",
      "outputs": [
        {
          "internalType": "uint256",
          "name": "",
          "type": "uint256"
        }
      ],
      "stateMutability": "view",
      "type": "function",
      "constant": true
    }
  ],
  "bytecode": "0x6080604052600160005534801561001557600080fd5b50610579806100256000396000f3fe608060405234801561001057600080fd5b506004361061004c5760003560e01c80632e7700f01461005157806346bd08411461006f57806372d0647214610156578063b69ef8a81461021e575b600080fd5b61005961023c565b6040518082815260200191505060405180910390f35b61009b6004803603602081101561008557600080fd5b8101908080359060200190929190505050610249565b604051808473ffffffffffffffffffffffffffffffffffffffff1673ffffffffffffffffffffffffffffffffffffffff168152602001806020018360070b60070b8152602001828103825284818151815260200191508051906020019080838360005b838110156101195780820151818401526020810190506100fe565b50505050905090810190601f1680156101465780820380516001836020036101000a031916815260200191505b5094505050505060405180910390f35b61021c6004803603604081101561016c57600080fd5b810190808035906020019064010000000081111561018957600080fd5b82018360208201111561019b57600080fd5b803590602001918460018302840111640100000000831117156101bd57600080fd5b91908080601f016020809104026020016040519081016040528093929190818152602001838380828437600081840152601f19601f820116905080830192505050505050509192919290803560070b9060200190929190505050610345565b005b61022661045e565b6040518082815260200191505060405180910390f35b6000600180549050905090565b6001818154811061025657fe5b90600052602060002090600302016000915090508060000160009054906101000a900473ffffffffffffffffffffffffffffffffffffffff1690806001018054600181600116156101000203166002900480601f0160208091040260200160405190810160405280929190818152602001828054600181600116156101000203166002900480156103285780601f106102fd57610100808354040283529160200191610328565b820191906000526020600020905b81548152906001019060200180831161030b57829003601f168201915b5050505050908060020160009054906101000a900460070b905083565b61034d610464565b60405180606001604052803373ffffffffffffffffffffffffffffffffffffffff1681526020018481526020018360070b8152509050600181908060018154018082558091505060019003906000526020600020906003020160009091909190915060008201518160000160006101000a81548173ffffffffffffffffffffffffffffffffffffffff021916908373ffffffffffffffffffffffffffffffffffffffff160217905550602082015181600101908051906020019061041292919061049e565b5060408201518160020160006101000a81548167ffffffffffffffff021916908360070b67ffffffffffffffff16021790555050508160070b6000808282540192505081905550505050565b60005481565b6040518060600160405280600073ffffffffffffffffffffffffffffffffffffffff16815260200160608152602001600060070b81525090565b828054600181600116156101000203166002900490600052602060002090601f016020900481019282601f106104df57805160ff191683800117855561050d565b8280016001018555821561050d579182015b8281111561050c5782518255916020019190600101906104f1565b5b50905061051a919061051e565b5090565b61054091905b8082111561053c576000816000905550600101610524565b5090565b9056fea264697066735822122022dc812fa110ae9cf7ccb1fc3d6e4f0575b9948bdf22dd4ccb22163e02b4c0da64736f6c63430006010033",
  "source": "pragma solidity 0.6.1;\r\n\r\ncontract ExpenseTracker {\r\n\r\n    int public balance = 1;\r\n\r\n    Transaction[] public transaction;\r\n\r\n    struct Transaction {\r\n        address transactionOwner;\r\n        string transactionDescription;\r\n        int64 amount;\r\n    }\r\n\r\n    function addTransaction(string memory _description, int64 _amount) public {\r\n        Transaction memory addTx = Transaction(msg.sender, _description, _amount);\r\n        transaction.push(addTx);\r\n        balance += _amount;\r\n    }\r\n\r\n    function getTransactionCount() public view returns(uint) {\r\n        return transaction.length;\r\n    }\r\n}",
  "sourcePath": "D:/Projects for Resume/ExpenseTrackerApp/blockchain/contracts/ExpenseTracker.sol",
  "compiler": {
    "name": "solc",
    "version": "0.6.1+commit.e6f7d5a4.Emscripten.clang"
  },
  "schemaVersion": "3.2.3",
  "updatedAt": "2020-10-12T16:32:26.873Z",
  "networkType": "ethereum",
  "devdoc": {
    "methods": {}
  },
  "userdoc": {
    "methods": {}
  }
}